{
  "contractName": "Counter",
  "abi": [
    {
      "inputs": [],
      "name": "trasactionCount",
      "outputs": [
        {
          "internalType": "uint256",
          "name": "",
          "type": "uint256"
        }
      ],
      "stateMutability": "view",
      "type": "function",
      "constant": true
    },
    {
      "inputs": [],
      "name": "AddTransaction",
      "outputs": [],
      "stateMutability": "nonpayable",
      "type": "function"
    }
  ],
  "bytecode": "0x608060405260008055348015601357600080fd5b5060aa806100226000396000f3fe6080604052348015600f57600080fd5b506004361060325760003560e01c8063d8a6e767146037578063e019d07714603f575b600080fd5b603d605b565b005b6045606e565b6040518082815260200191505060405180910390f35b6000808154809291906001019190505550565b6000548156fea26469706673582212201bfb10ebdaa0ec905d605451995f215fe27b0343ad0c82c9ea3224d078ef0b7864736f6c63430007030033",
  "immutableReferences": {},
  "source": "pragma solidity >= 0.4.22 <0.9.0;\r\n\r\ncontract Counter {\r\n  uint public trasactionCount = 0;\r\n  \r\n  function AddTransaction() public {\r\n    trasactionCount++;\r\n  }\r\n}",
  "sourcePath": "D:\\ntp_to_deploy_million_tokens\\contracts\\Counter.sol",
  "compiler": {
    "name": "solc",
    "version": "0.7.3+commit.9bfce1f6.Emscripten.clang"
  },
  "schemaVersion": "3.4.3",
  "updatedAt": "2021-11-30T10:29:06.629Z",
  "networkType": "ethereum",
  "devdoc": {
    "kind": "dev",
    "methods": {},
    "version": 1
  },
  "userdoc": {
    "kind": "user",
    "methods": {},
    "version": 1
  }
}