{
  "contractName": "FirstContract",
  "abi": [
    {
      "inputs": [],
      "name": "getValue",
      "outputs": [
        {
          "internalType": "uint256",
          "name": "",
          "type": "uint256"
        }
      ],
      "stateMutability": "view",
      "type": "function",
      "constant": true
    },
    {
      "inputs": [
        {
          "internalType": "uint256",
          "name": "_value",
          "type": "uint256"
        }
      ],
      "name": "setValue",
      "outputs": [],
      "stateMutability": "nonpayable",
      "type": "function"
    },
    {
      "inputs": [],
      "name": "getMsgSender",
      "outputs": [
        {
          "internalType": "address",
          "name": "",
          "type": "address"
        }
      ],
      "stateMutability": "view",
      "type": "function",
      "constant": true
    }
  ],
  "bytecode": "0x608060405234801561001057600080fd5b5061017a806100206000396000f3fe608060405234801561001057600080fd5b50600436106100415760003560e01c8063209652551461004657806355241077146100645780637a6ce2e114610092575b600080fd5b61004e6100c6565b6040518082815260200191505060405180910390f35b6100906004803603602081101561007a57600080fd5b81019080803590602001909291905050506100cf565b005b61009a61011a565b604051808273ffffffffffffffffffffffffffffffffffffffff16815260200191505060405180910390f35b60008054905090565b33600160006101000a81548173ffffffffffffffffffffffffffffffffffffffff021916908373ffffffffffffffffffffffffffffffffffffffff1602179055508060008190555050565b6000600160009054906101000a900473ffffffffffffffffffffffffffffffffffffffff1690509056fea264697066735822122061a5f7447a3f3c0f4521f6ca5cb1cd58e23cd4ed9513ae69e9cb61cdb551c31164736f6c63430007030033",
  "immutableReferences": {},
  "source": "pragma solidity >= 0.4.22 <0.9.0;\r\n\r\ncontract FirstContract {\r\n    uint value;\r\n    address sender; \r\n    \r\n    function getValue() external view returns(uint) { \r\n        return value;\r\n    }\r\n    \r\n    function setValue(uint _value) external {\r\n        sender = msg.sender;\r\n        value = _value;\r\n    }\r\n    \r\n    function getMsgSender() external view returns(address) { \r\n        return sender;\r\n    }\r\n    \r\n    \r\n}",
  "sourcePath": "D:\\ntp_to_deploy_million_tokens\\contracts\\FirstContract.sol",
  "compiler": {
    "name": "solc",
    "version": "0.7.3+commit.9bfce1f6.Emscripten.clang"
  },
  "schemaVersion": "3.4.3",
  "updatedAt": "2021-11-30T13:05:51.185Z",
  "networkType": "ethereum",
  "devdoc": {
    "kind": "dev",
    "methods": {},
    "version": 1
  },
  "userdoc": {
    "kind": "user",
    "methods": {},
    "version": 1
  }
}